:020000040000FA
:020000003128A5
:020008000528C9
:06000A00F000030E83125A
:10001000F100051422191B28A21401302302031930
:100020001928A50CB2308100A517861FA513A8308A
:10003000292800302928221A21280314800C0318AB
:1000400024288613221225288617B6308100A21193
:10005000A0308B0006080510710E8300F00E700EA4
:1000600009008313031383168C01803086008617E2
:100070000830810006308500831207309F00203051
:100080009000851C5528A02121110130D000211499
:10009000F4200330D000CF01A72165206520722015
:1000A000AB207C20C020F4205128831686018312C7
:1000B00086136520861722117C2065206520842008
:1000C0009E200514000065286228C830AA00B430BC
:1000D000A8001430A900A90B6B28A80B6928AA0B4B
:1000E000672808008C018B01831686138312B230B7
:1000F0008100A0308B0008008C01831680308600C0
:100100008B1583128617080065202C3084000B3075
:10011000A40088308B000A30A300A21C8D28A210F6
:10012000A30B8D288B0125088000840AA40B892845
:100130008B01831608308100831208000A30A40066
:100140008B132D3084003030A7009021840AA70A39
:10015000A40BA52808002215A21522160A30A40017
:100160002D3084000F30A3000008A219B528A21575
:10017000A30BB528840A2216A40BB228221108006A
:1001800088308B002D3084001230A4001230A30080
:100190009E308F0058308E008C0121309000211449
:1001A0000C18E828A21CD0280A3023020319EC20DE
:1001B000A210A30BD028EC20F120A408031DC62810
:1001C0008B0190018C0121102111851C4521080013
:1001D000211490010C10080025088000840AA40353
:1001E000080088308B0008008B01211C0229D008F0
:1001F000031DFB280529D00B052921190529A0215C
:10020000211505295321A21B7B210830A4003F3072
:10021000840024080311063A03190F2910298614B3
:1002200019213821A40B0929192106142110861738
:100230000800DE308E00FE308F0021309000061066
:1002400026210C1C212990010C100800AC0100088B
:100250002C02D100840A0008840A2C02D200D108A2
:10026000031DD2031830D1070318D20AD20A08009E
:1002700051088E0052088F002130900006140C1C8B
:100280003F29861090010C1008008B131230A40037
:100290003F3084004030A7009021840AA70AA40BB5
:1002A0004C29A1140800A213AB012F3084000730A1
:1002B000A4002D0800070318AB0A840A840AA40BC3
:1002C0005A290002031D76290830A4002E3084002C
:1002D0002B080007840A840AA40B69290002031D65
:1002E0007629A2170330D000051008000514D008A5
:1002F000031DD0030800851C45211030A4003F30A9
:10030000A7002D30A600260884000008AC002708AE
:1003100084002C088000A60AA70AA40B83290800E1
:10032000270883169B0000089A001C1555309D0075
:10033000AA309D009C1483128C1F9C298C130800EA
:100340001030A4004030A6003F30AE2108000A3033
:10035000A4003030A6002D30AE2108008400B52165
:10036000A60A840AA40BAF290800260883169B005E
:0A0370001C141A0880008312080014
:04037A000034003417
:02400E00423F2F
:104200005200650069006E00680061007200640081
:1042100020005300740072006100750063006800A4
:10422000200032003000300039003B002000440004
:10423000650063006F0064006500720031003000AB
:104240002000500050004D002B002000460053007D
:044250006F006E008D
:10426000EE0000000000000055005500550055000C
:04427000550097005E
:10428000DC000500DC000500AC000400DC000500DB
:10429000DC000500DC000500DC000500DC0005009A
:00000001FF
